{
  "contractName": "AuctionCreator",
  "abi": [
    {
      "inputs": [
        {
          "internalType": "uint256",
          "name": "",
          "type": "uint256"
        }
      ],
      "name": "auctions",
      "outputs": [
        {
          "internalType": "contract Auction",
          "name": "",
          "type": "address"
        }
      ],
      "stateMutability": "view",
      "type": "function",
      "constant": true
    },
    {
      "inputs": [],
      "name": "createAuction",
      "outputs": [],
      "stateMutability": "nonpayable",
      "type": "function"
    }
  ],
  "bytecode": "0x608060405234801561001057600080fd5b50611ad9806100206000396000f3fe608060405234801561001057600080fd5b50600436106100365760003560e01c8063571a26a01461003b578063f58114471461006b575b600080fd5b61005560048036038101906100509190610174565b610075565b60405161006291906101d6565b60405180910390f35b6100736100b4565b005b6000818154811061008557600080fd5b906000526020600020016000915054906101000a900473ffffffffffffffffffffffffffffffffffffffff1681565b6000336040516100c390610152565b6100cd91906101bb565b604051809103906000f0801580156100e9573d6000803e3d6000fd5b5090506000819080600181540180825580915050600190039060005260206000200160009091909190916101000a81548173ffffffffffffffffffffffffffffffffffffffff021916908373ffffffffffffffffffffffffffffffffffffffff16021790555050565b61183b8061026983390190565b60008135905061016e81610251565b92915050565b60006020828403121561018657600080fd5b60006101948482850161015f565b91505092915050565b6101a6816101f1565b82525050565b6101b58161022d565b82525050565b60006020820190506101d0600083018461019d565b92915050565b60006020820190506101eb60008301846101ac565b92915050565b60006101fc82610203565b9050919050565b600073ffffffffffffffffffffffffffffffffffffffff82169050919050565b6000819050919050565b60006102388261023f565b9050919050565b600061024a82610203565b9050919050565b61025a81610223565b811461026557600080fd5b5056fe60806040523480156200001157600080fd5b506040516200183b3803806200183b8339818101604052810190620000379190620001ec565b806000806101000a81548173ffffffffffffffffffffffffffffffffffffffff021916908373ffffffffffffffffffffffffffffffffffffffff1602179055506001600460006101000a81548160ff02191690836003811115620000c4577f4e487b7100000000000000000000000000000000000000000000000000000000600052602160045260246000fd5b0217905550436001819055506003600154620000e1919062000218565b60028190555060405180602001604052806000815250600390805190602001906200010e92919062000125565b50670de0b6b3a76400006009819055505062000361565b8280546200013390620002b3565b90600052602060002090601f016020900481019282620001575760008555620001a3565b82601f106200017257805160ff1916838001178555620001a3565b82800160010185558215620001a3579182015b82811115620001a257825182559160200191906001019062000185565b5b509050620001b29190620001b6565b5090565b5b80821115620001d1576000816000905550600101620001b7565b5090565b600081519050620001e68162000347565b92915050565b600060208284031215620001ff57600080fd5b60006200020f84828501620001d5565b91505092915050565b60006200022582620002a9565b91506200023283620002a9565b9250827fffffffffffffffffffffffffffffffffffffffffffffffffffffffffffffffff038211156200026a5762000269620002e9565b5b828201905092915050565b6000620002828262000289565b9050919050565b600073ffffffffffffffffffffffffffffffffffffffff82169050919050565b6000819050919050565b60006002820490506001821680620002cc57607f821691505b60208210811415620002e357620002e262000318565b5b50919050565b7f4e487b7100000000000000000000000000000000000000000000000000000000600052601160045260246000fd5b7f4e487b7100000000000000000000000000000000000000000000000000000000600052602260045260246000fd5b620003528162000275565b81146200035e57600080fd5b50565b6114ca80620003716000396000f3fe6080604052600436106100c25760003560e01c80638fa8b7901161007f578063c623674f11610059578063c623674f1461025a578063ecfc7ecc14610285578063f5b56c561461028f578063f77282ab146102ba576100c2565b80638fa8b790146101ed57806391f9015714610204578063b81c78ec1461022f576100c2565b8063083c6323146100c7578063480892a9146100f257806348cd4cb11461012f57806362ea82db1461015a5780637fb45099146101975780638da5cb5b146101c2575b600080fd5b3480156100d357600080fd5b506100dc6102d1565b6040516100e991906111b9565b60405180910390f35b3480156100fe57600080fd5b5061011960048036038101906101149190610efc565b6102d7565b60405161012691906111b9565b60405180910390f35b34801561013b57600080fd5b506101446102fb565b60405161015191906111b9565b60405180910390f35b34801561016657600080fd5b50610181600480360381019061017c9190610ed3565b610301565b60405161018e91906111b9565b60405180910390f35b3480156101a357600080fd5b506101ac610319565b6040516101b9919061111c565b60405180910390f35b3480156101ce57600080fd5b506101d761032c565b6040516101e491906110df565b60405180910390f35b3480156101f957600080fd5b50610202610350565b005b34801561021057600080fd5b50610219610441565b60405161022691906110df565b60405180910390f35b34801561023b57600080fd5b50610244610467565b60405161025191906110fa565b60405180910390f35b34801561026657600080fd5b5061026f6104bf565b60405161027c9190611137565b60405180910390f35b61028d61054d565b005b34801561029b57600080fd5b506102a46109b1565b6040516102b191906111b9565b60405180910390f35b3480156102c657600080fd5b506102cf6109b7565b005b60025481565b600781815481106102e757600080fd5b906000526020600020016000915090505481565b60015481565b60086020528060005260406000206000915090505481565b600460009054906101000a900460ff1681565b60008054906101000a900473ffffffffffffffffffffffffffffffffffffffff1681565b60008054906101000a900473ffffffffffffffffffffffffffffffffffffffff1673ffffffffffffffffffffffffffffffffffffffff163373ffffffffffffffffffffffffffffffffffffffff16146103a857600080fd5b6003600460006101000a81548160ff021916908360038111156103f4577f4e487b7100000000000000000000000000000000000000000000000000000000600052602160045260246000fd5b02179055507f7c82c24d979e6ebc7d62b7785e8d0632f3308fdb0649ab74aa86f13be9a66058600460009054906101000a900460ff16604051610437919061111c565b60405180910390a1565b600660009054906101000a900473ffffffffffffffffffffffffffffffffffffffff1681565b606060078054806020026020016040519081016040528092919081815260200182805480156104b557602002820191906000526020600020905b8154815260200190600101908083116104a1575b5050505050905090565b600380546104cc90611382565b80601f01602080910402602001604051908101604052809291908181526020018280546104f890611382565b80156105455780601f1061051a57610100808354040283529160200191610545565b820191906000526020600020905b81548152906001019060200180831161052857829003601f168201915b505050505081565b60008054906101000a900473ffffffffffffffffffffffffffffffffffffffff1673ffffffffffffffffffffffffffffffffffffffff163373ffffffffffffffffffffffffffffffffffffffff1614156105a657600080fd5b6001544310156105b557600080fd5b6002544311156105c457600080fd5b600160038111156105fe577f4e487b7100000000000000000000000000000000000000000000000000000000600052602160045260246000fd5b600460009054906101000a900460ff166003811115610646577f4e487b7100000000000000000000000000000000000000000000000000000000600052602160045260246000fd5b14610686576040517f08c379a000000000000000000000000000000000000000000000000000000000815260040161067d90611179565b60405180910390fd5b60643410156106ca576040517f08c379a00000000000000000000000000000000000000000000000000000000081526004016106c190611199565b60405180910390fd5b600034600860003373ffffffffffffffffffffffffffffffffffffffff1673ffffffffffffffffffffffffffffffffffffffff168152602001908152602001600020546107179190611252565b9050600554811161075d576040517f08c379a000000000000000000000000000000000000000000000000000000000815260040161075490611159565b60405180910390fd5b80600860003373ffffffffffffffffffffffffffffffffffffffff1673ffffffffffffffffffffffffffffffffffffffff16815260200190815260200160002081905550600781908060018154018082558091505060019003906000526020600020016000909190919091505560086000600660009054906101000a900473ffffffffffffffffffffffffffffffffffffffff1673ffffffffffffffffffffffffffffffffffffffff1673ffffffffffffffffffffffffffffffffffffffff1681526020019081526020016000205481116108b5576108aa600954826108439190611252565b60086000600660009054906101000a900473ffffffffffffffffffffffffffffffffffffffff1673ffffffffffffffffffffffffffffffffffffffff1673ffffffffffffffffffffffffffffffffffffffff16815260200190815260200160002054610e8e565b600581905550610975565b61092d8160095460086000600660009054906101000a900473ffffffffffffffffffffffffffffffffffffffff1673ffffffffffffffffffffffffffffffffffffffff1673ffffffffffffffffffffffffffffffffffffffff168152602001908152602001600020546109289190611252565b610e8e565b60058190555033600660006101000a81548173ffffffffffffffffffffffffffffffffffffffff021916908373ffffffffffffffffffffffffffffffffffffffff1602179055505b7f5445de3f4fe13efb115ec05c57e09cc0e277801d0cd2ae780457ebcd8688c39181336040516109a69291906111d4565b60405180910390a150565b60055481565b6003808111156109f0577f4e487b7100000000000000000000000000000000000000000000000000000000600052602160045260246000fd5b600460009054906101000a900460ff166003811115610a38577f4e487b7100000000000000000000000000000000000000000000000000000000600052602160045260246000fd5b1480610a45575060025443115b610a4e57600080fd5b60008054906101000a900473ffffffffffffffffffffffffffffffffffffffff1673ffffffffffffffffffffffffffffffffffffffff163373ffffffffffffffffffffffffffffffffffffffff161480610ae757506000600860003373ffffffffffffffffffffffffffffffffffffffff1673ffffffffffffffffffffffffffffffffffffffff16815260200190815260200160002054115b610af057600080fd5b600080600380811115610b2c577f4e487b7100000000000000000000000000000000000000000000000000000000600052602160045260246000fd5b600460009054906101000a900460ff166003811115610b74577f4e487b7100000000000000000000000000000000000000000000000000000000600052602160045260246000fd5b1415610bc457339150600860003373ffffffffffffffffffffffffffffffffffffffff1673ffffffffffffffffffffffffffffffffffffffff168152602001908152602001600020549050610dfe565b6002600460006101000a81548160ff02191690836003811115610c10577f4e487b7100000000000000000000000000000000000000000000000000000000600052602160045260246000fd5b02179055507f7c82c24d979e6ebc7d62b7785e8d0632f3308fdb0649ab74aa86f13be9a66058600460009054906101000a900460ff16604051610c53919061111c565b60405180910390a160008054906101000a900473ffffffffffffffffffffffffffffffffffffffff1673ffffffffffffffffffffffffffffffffffffffff163373ffffffffffffffffffffffffffffffffffffffff161415610cc55760008054906101000a9050506005549050610dfd565b600660009054906101000a900473ffffffffffffffffffffffffffffffffffffffff1673ffffffffffffffffffffffffffffffffffffffff163373ffffffffffffffffffffffffffffffffffffffff161415610db657600660009054906101000a900473ffffffffffffffffffffffffffffffffffffffff16915060055460086000600660009054906101000a900473ffffffffffffffffffffffffffffffffffffffff1673ffffffffffffffffffffffffffffffffffffffff1673ffffffffffffffffffffffffffffffffffffffff16815260200190815260200160002054610daf91906112a8565b9050610dfc565b339150600860003373ffffffffffffffffffffffffffffffffffffffff1673ffffffffffffffffffffffffffffffffffffffff1681526020019081526020016000205490505b5b5b6000600860008473ffffffffffffffffffffffffffffffffffffffff1673ffffffffffffffffffffffffffffffffffffffff168152602001908152602001600020819055508173ffffffffffffffffffffffffffffffffffffffff166108fc829081150290604051600060405180830381858888f19350505050158015610e89573d6000803e3d6000fd5b505050565b6000818311610e9f57829050610ea3565b8190505b92915050565b600081359050610eb881611466565b92915050565b600081359050610ecd8161147d565b92915050565b600060208284031215610ee557600080fd5b6000610ef384828501610ea9565b91505092915050565b600060208284031215610f0e57600080fd5b6000610f1c84828501610ebe565b91505092915050565b6000610f3183836110c1565b60208301905092915050565b610f46816112ee565b82525050565b610f55816112dc565b82525050565b6000610f668261120d565b610f708185611230565b9350610f7b836111fd565b8060005b83811015610fac578151610f938882610f25565b9750610f9e83611223565b925050600181019050610f7f565b5085935050505092915050565b610fc28161133d565b82525050565b6000610fd382611218565b610fdd8185611241565b9350610fed81856020860161134f565b610ff681611441565b840191505092915050565b600061100e600e83611241565b91507f426964206e6f7420656e6f7567680000000000000000000000000000000000006000830152602082019050919050565b600061104e601383611241565b91507f41756374696f6e206e6f742072756e6e696e67000000000000000000000000006000830152602082019050919050565b600061108e601383611241565b91507f56616c7565206973206e6f7420656e6f756768000000000000000000000000006000830152602082019050919050565b6110ca81611333565b82525050565b6110d981611333565b82525050565b60006020820190506110f46000830184610f3d565b92915050565b600060208201905081810360008301526111148184610f5b565b905092915050565b60006020820190506111316000830184610fb9565b92915050565b600060208201905081810360008301526111518184610fc8565b905092915050565b6000602082019050818103600083015261117281611001565b9050919050565b6000602082019050818103600083015261119281611041565b9050919050565b600060208201905081810360008301526111b281611081565b9050919050565b60006020820190506111ce60008301846110d0565b92915050565b60006040820190506111e960008301856110d0565b6111f66020830184610f4c565b9392505050565b6000819050602082019050919050565b600081519050919050565b600081519050919050565b6000602082019050919050565b600082825260208201905092915050565b600082825260208201905092915050565b600061125d82611333565b915061126883611333565b9250827fffffffffffffffffffffffffffffffffffffffffffffffffffffffffffffffff0382111561129d5761129c6113b4565b5b828201905092915050565b60006112b382611333565b91506112be83611333565b9250828210156112d1576112d06113b4565b5b828203905092915050565b60006112e782611313565b9050919050565b60006112f982611313565b9050919050565b600081905061130e82611452565b919050565b600073ffffffffffffffffffffffffffffffffffffffff82169050919050565b6000819050919050565b600061134882611300565b9050919050565b60005b8381101561136d578082015181840152602081019050611352565b8381111561137c576000848401525b50505050565b6000600282049050600182168061139a57607f821691505b602082108114156113ae576113ad611412565b5b50919050565b7f4e487b7100000000000000000000000000000000000000000000000000000000600052601160045260246000fd5b7f4e487b7100000000000000000000000000000000000000000000000000000000600052602160045260246000fd5b7f4e487b7100000000000000000000000000000000000000000000000000000000600052602260045260246000fd5b6000601f19601f8301169050919050565b60048110611463576114626113e3565b5b50565b61146f816112dc565b811461147a57600080fd5b50565b61148681611333565b811461149157600080fd5b5056fea26469706673582212201fac0c57f9789e7e8f013a77b2d4fae174c112b9639a217fef78bb3b216299d564736f6c63430008000033a26469706673582212203bbe72f9648598f72341330c98418bbcb9aa140e407f520324db43661fa9307b64736f6c63430008000033",
  "immutableReferences": {},
  "source": "// SPDX-License-Identifier: GPL-3.0\npragma solidity >=0.7.0 <0.9.0;\n\nimport './Auction.sol';\n\ncontract AuctionCreator {\n    Auction[] public auctions;\n\n    function createAuction() public {\n        Auction newAuction = new Auction(msg.sender);\n        auctions.push(newAuction);\n    }\n}",
  "sourcePath": "/Users/arthurgallina/Desktop/Arthur/Codigos/auction-dapp/contracts/AuctionCreator.sol",
  "compiler": {
    "name": "solc",
    "version": "0.8.0+commit.c7dfd78e.Emscripten.clang"
  },
  "schemaVersion": "3.4.3",
  "updatedAt": "2021-11-16T13:04:40.029Z",
  "networkType": "ethereum",
  "devdoc": {
    "kind": "dev",
    "methods": {},
    "version": 1
  },
  "userdoc": {
    "kind": "user",
    "methods": {},
    "version": 1
  }
}