{
  "contractName": "Auction",
  "abi": [
    {
      "inputs": [
        {
          "internalType": "address",
          "name": "EOA",
          "type": "address"
        }
      ],
      "stateMutability": "nonpayable",
      "type": "constructor"
    },
    {
      "anonymous": false,
      "inputs": [
        {
          "indexed": false,
          "internalType": "enum Auction.State",
          "name": "auctionState",
          "type": "uint8"
        }
      ],
      "name": "AuctionStateChange",
      "type": "event"
    },
    {
      "inputs": [],
      "name": "auctionState",
      "outputs": [
        {
          "internalType": "enum Auction.State",
          "name": "",
          "type": "uint8"
        }
      ],
      "stateMutability": "view",
      "type": "function",
      "constant": true
    },
    {
      "inputs": [
        {
          "internalType": "address",
          "name": "",
          "type": "address"
        }
      ],
      "name": "bids",
      "outputs": [
        {
          "internalType": "uint256",
          "name": "",
          "type": "uint256"
        }
      ],
      "stateMutability": "view",
      "type": "function",
      "constant": true
    },
    {
      "inputs": [],
      "name": "endBlock",
      "outputs": [
        {
          "internalType": "uint256",
          "name": "",
          "type": "uint256"
        }
      ],
      "stateMutability": "view",
      "type": "function",
      "constant": true
    },
    {
      "inputs": [],
      "name": "highestBidder",
      "outputs": [
        {
          "internalType": "address payable",
          "name": "",
          "type": "address"
        }
      ],
      "stateMutability": "view",
      "type": "function",
      "constant": true
    },
    {
      "inputs": [],
      "name": "highestBindingBid",
      "outputs": [
        {
          "internalType": "uint256",
          "name": "",
          "type": "uint256"
        }
      ],
      "stateMutability": "view",
      "type": "function",
      "constant": true
    },
    {
      "inputs": [],
      "name": "ipfsHash",
      "outputs": [
        {
          "internalType": "string",
          "name": "",
          "type": "string"
        }
      ],
      "stateMutability": "view",
      "type": "function",
      "constant": true
    },
    {
      "inputs": [],
      "name": "owner",
      "outputs": [
        {
          "internalType": "address payable",
          "name": "",
          "type": "address"
        }
      ],
      "stateMutability": "view",
      "type": "function",
      "constant": true
    },
    {
      "inputs": [],
      "name": "startBlock",
      "outputs": [
        {
          "internalType": "uint256",
          "name": "",
          "type": "uint256"
        }
      ],
      "stateMutability": "view",
      "type": "function",
      "constant": true
    },
    {
      "inputs": [],
      "name": "cancelAuction",
      "outputs": [],
      "stateMutability": "nonpayable",
      "type": "function"
    },
    {
      "inputs": [],
      "name": "finalizeAuction",
      "outputs": [],
      "stateMutability": "nonpayable",
      "type": "function"
    },
    {
      "inputs": [],
      "name": "placeBid",
      "outputs": [],
      "stateMutability": "payable",
      "type": "function",
      "payable": true
    }
  ],
  "bytecode": "0x60806040523480156200001157600080fd5b50604051620014cb380380620014cb8339818101604052810190620000379190620001ec565b806000806101000a81548173ffffffffffffffffffffffffffffffffffffffff021916908373ffffffffffffffffffffffffffffffffffffffff1602179055506001600460006101000a81548160ff02191690836003811115620000c4577f4e487b7100000000000000000000000000000000000000000000000000000000600052602160045260246000fd5b0217905550436001819055506003600154620000e1919062000218565b60028190555060405180602001604052806000815250600390805190602001906200010e92919062000125565b50670de0b6b3a76400006008819055505062000361565b8280546200013390620002b3565b90600052602060002090601f016020900481019282620001575760008555620001a3565b82601f106200017257805160ff1916838001178555620001a3565b82800160010185558215620001a3579182015b82811115620001a257825182559160200191906001019062000185565b5b509050620001b29190620001b6565b5090565b5b80821115620001d1576000816000905550600101620001b7565b5090565b600081519050620001e68162000347565b92915050565b600060208284031215620001ff57600080fd5b60006200020f84828501620001d5565b91505092915050565b60006200022582620002a9565b91506200023283620002a9565b9250827fffffffffffffffffffffffffffffffffffffffffffffffffffffffffffffffff038211156200026a5762000269620002e9565b5b828201905092915050565b6000620002828262000289565b9050919050565b600073ffffffffffffffffffffffffffffffffffffffff82169050919050565b6000819050919050565b60006002820490506001821680620002cc57607f821691505b60208210811415620002e357620002e262000318565b5b50919050565b7f4e487b7100000000000000000000000000000000000000000000000000000000600052601160045260246000fd5b7f4e487b7100000000000000000000000000000000000000000000000000000000600052602260045260246000fd5b620003528162000275565b81146200035e57600080fd5b50565b61115a80620003716000396000f3fe60806040526004361061009c5760003560e01c80638fa8b790116100645780638fa8b7901461018a57806391f90157146101a1578063c623674f146101cc578063ecfc7ecc146101f7578063f5b56c5614610201578063f77282ab1461022c5761009c565b8063083c6323146100a157806348cd4cb1146100cc57806362ea82db146100f75780637fb45099146101345780638da5cb5b1461015f575b600080fd5b3480156100ad57600080fd5b506100b6610243565b6040516100c39190610ec2565b60405180910390f35b3480156100d857600080fd5b506100e1610249565b6040516100ee9190610ec2565b60405180910390f35b34801561010357600080fd5b5061011e60048036038101906101199190610cbb565b61024f565b60405161012b9190610ec2565b60405180910390f35b34801561014057600080fd5b50610149610267565b6040516101569190610e25565b60405180910390f35b34801561016b57600080fd5b5061017461027a565b6040516101819190610e0a565b60405180910390f35b34801561019657600080fd5b5061019f61029e565b005b3480156101ad57600080fd5b506101b661038f565b6040516101c39190610e0a565b60405180910390f35b3480156101d857600080fd5b506101e16103b5565b6040516101ee9190610e40565b60405180910390f35b6101ff610443565b005b34801561020d57600080fd5b50610216610845565b6040516102239190610ec2565b60405180910390f35b34801561023857600080fd5b5061024161084b565b005b60025481565b60015481565b60076020528060005260406000206000915090505481565b600460009054906101000a900460ff1681565b60008054906101000a900473ffffffffffffffffffffffffffffffffffffffff1681565b60008054906101000a900473ffffffffffffffffffffffffffffffffffffffff1673ffffffffffffffffffffffffffffffffffffffff163373ffffffffffffffffffffffffffffffffffffffff16146102f657600080fd5b6003600460006101000a81548160ff02191690836003811115610342577f4e487b7100000000000000000000000000000000000000000000000000000000600052602160045260246000fd5b02179055507f7c82c24d979e6ebc7d62b7785e8d0632f3308fdb0649ab74aa86f13be9a66058600460009054906101000a900460ff166040516103859190610e25565b60405180910390a1565b600660009054906101000a900473ffffffffffffffffffffffffffffffffffffffff1681565b600380546103c290611029565b80601f01602080910402602001604051908101604052809291908181526020018280546103ee90611029565b801561043b5780601f106104105761010080835404028352916020019161043b565b820191906000526020600020905b81548152906001019060200180831161041e57829003601f168201915b505050505081565b60008054906101000a900473ffffffffffffffffffffffffffffffffffffffff1673ffffffffffffffffffffffffffffffffffffffff163373ffffffffffffffffffffffffffffffffffffffff16141561049c57600080fd5b6001544310156104ab57600080fd5b6002544311156104ba57600080fd5b600160038111156104f4577f4e487b7100000000000000000000000000000000000000000000000000000000600052602160045260246000fd5b600460009054906101000a900460ff16600381111561053c577f4e487b7100000000000000000000000000000000000000000000000000000000600052602160045260246000fd5b1461057c576040517f08c379a000000000000000000000000000000000000000000000000000000000815260040161057390610e82565b60405180910390fd5b60643410156105c0576040517f08c379a00000000000000000000000000000000000000000000000000000000081526004016105b790610ea2565b60405180910390fd5b600034600760003373ffffffffffffffffffffffffffffffffffffffff1673ffffffffffffffffffffffffffffffffffffffff1681526020019081526020016000205461060d9190610ef9565b90506005548111610653576040517f08c379a000000000000000000000000000000000000000000000000000000000815260040161064a90610e62565b60405180910390fd5b80600760003373ffffffffffffffffffffffffffffffffffffffff1673ffffffffffffffffffffffffffffffffffffffff1681526020019081526020016000208190555060076000600660009054906101000a900473ffffffffffffffffffffffffffffffffffffffff1673ffffffffffffffffffffffffffffffffffffffff1673ffffffffffffffffffffffffffffffffffffffff16815260200190815260200160002054811161078257610777600854826107109190610ef9565b60076000600660009054906101000a900473ffffffffffffffffffffffffffffffffffffffff1673ffffffffffffffffffffffffffffffffffffffff1673ffffffffffffffffffffffffffffffffffffffff16815260200190815260200160002054610c8b565b600581905550610842565b6107fa8160085460076000600660009054906101000a900473ffffffffffffffffffffffffffffffffffffffff1673ffffffffffffffffffffffffffffffffffffffff1673ffffffffffffffffffffffffffffffffffffffff168152602001908152602001600020546107f59190610ef9565b610c8b565b60058190555033600660006101000a81548173ffffffffffffffffffffffffffffffffffffffff021916908373ffffffffffffffffffffffffffffffffffffffff1602179055505b50565b60055481565b600380811115610884577f4e487b7100000000000000000000000000000000000000000000000000000000600052602160045260246000fd5b600460009054906101000a900460ff1660038111156108cc577f4e487b7100000000000000000000000000000000000000000000000000000000600052602160045260246000fd5b14806108d9575060025443115b6108e257600080fd5b60008054906101000a900473ffffffffffffffffffffffffffffffffffffffff1673ffffffffffffffffffffffffffffffffffffffff163373ffffffffffffffffffffffffffffffffffffffff16148061097b57506000600760003373ffffffffffffffffffffffffffffffffffffffff1673ffffffffffffffffffffffffffffffffffffffff16815260200190815260200160002054115b61098457600080fd5b6000806003808111156109c0577f4e487b7100000000000000000000000000000000000000000000000000000000600052602160045260246000fd5b600460009054906101000a900460ff166003811115610a08577f4e487b7100000000000000000000000000000000000000000000000000000000600052602160045260246000fd5b1415610a5857339150600760003373ffffffffffffffffffffffffffffffffffffffff1673ffffffffffffffffffffffffffffffffffffffff168152602001908152602001600020549050610bfb565b60008054906101000a900473ffffffffffffffffffffffffffffffffffffffff1673ffffffffffffffffffffffffffffffffffffffff163373ffffffffffffffffffffffffffffffffffffffff161415610ac25760008054906101000a9050506005549050610bfa565b600660009054906101000a900473ffffffffffffffffffffffffffffffffffffffff1673ffffffffffffffffffffffffffffffffffffffff163373ffffffffffffffffffffffffffffffffffffffff161415610bb357600660009054906101000a900473ffffffffffffffffffffffffffffffffffffffff16915060055460076000600660009054906101000a900473ffffffffffffffffffffffffffffffffffffffff1673ffffffffffffffffffffffffffffffffffffffff1673ffffffffffffffffffffffffffffffffffffffff16815260200190815260200160002054610bac9190610f4f565b9050610bf9565b339150600760003373ffffffffffffffffffffffffffffffffffffffff1673ffffffffffffffffffffffffffffffffffffffff1681526020019081526020016000205490505b5b5b6000600760008473ffffffffffffffffffffffffffffffffffffffff1673ffffffffffffffffffffffffffffffffffffffff168152602001908152602001600020819055508173ffffffffffffffffffffffffffffffffffffffff166108fc829081150290604051600060405180830381858888f19350505050158015610c86573d6000803e3d6000fd5b505050565b6000818311610c9c57829050610ca0565b8190505b92915050565b600081359050610cb58161110d565b92915050565b600060208284031215610ccd57600080fd5b6000610cdb84828501610ca6565b91505092915050565b610ced81610f95565b82525050565b610cfc81610fe4565b82525050565b6000610d0d82610edd565b610d178185610ee8565b9350610d27818560208601610ff6565b610d30816110e8565b840191505092915050565b6000610d48600e83610ee8565b91507f426964206e6f7420656e6f7567680000000000000000000000000000000000006000830152602082019050919050565b6000610d88601383610ee8565b91507f41756374696f6e206e6f742072756e6e696e67000000000000000000000000006000830152602082019050919050565b6000610dc8601383610ee8565b91507f56616c7565206973206e6f7420656e6f756768000000000000000000000000006000830152602082019050919050565b610e0481610fda565b82525050565b6000602082019050610e1f6000830184610ce4565b92915050565b6000602082019050610e3a6000830184610cf3565b92915050565b60006020820190508181036000830152610e5a8184610d02565b905092915050565b60006020820190508181036000830152610e7b81610d3b565b9050919050565b60006020820190508181036000830152610e9b81610d7b565b9050919050565b60006020820190508181036000830152610ebb81610dbb565b9050919050565b6000602082019050610ed76000830184610dfb565b92915050565b600081519050919050565b600082825260208201905092915050565b6000610f0482610fda565b9150610f0f83610fda565b9250827fffffffffffffffffffffffffffffffffffffffffffffffffffffffffffffffff03821115610f4457610f4361105b565b5b828201905092915050565b6000610f5a82610fda565b9150610f6583610fda565b925082821015610f7857610f7761105b565b5b828203905092915050565b6000610f8e82610fba565b9050919050565b6000610fa082610fba565b9050919050565b6000819050610fb5826110f9565b919050565b600073ffffffffffffffffffffffffffffffffffffffff82169050919050565b6000819050919050565b6000610fef82610fa7565b9050919050565b60005b83811015611014578082015181840152602081019050610ff9565b83811115611023576000848401525b50505050565b6000600282049050600182168061104157607f821691505b60208210811415611055576110546110b9565b5b50919050565b7f4e487b7100000000000000000000000000000000000000000000000000000000600052601160045260246000fd5b7f4e487b7100000000000000000000000000000000000000000000000000000000600052602160045260246000fd5b7f4e487b7100000000000000000000000000000000000000000000000000000000600052602260045260246000fd5b6000601f19601f8301169050919050565b6004811061110a5761110961108a565b5b50565b61111681610f83565b811461112157600080fd5b5056fea2646970667358221220cfdc562211aafe8e132561270d8aac3e9807bc2b427b9d57fd5bbdf254f1ac5164736f6c63430008000033",
  "immutableReferences": {},
  "source": "// SPDX-License-Identifier: GPL-3.0\npragma solidity >=0.7.0 <0.9.0;\n\ncontract Auction {\n    address payable public owner;\n    uint256 public startBlock;\n    uint256 public endBlock;\n    string public ipfsHash;\n\n    enum State {\n        Started,\n        Running,\n        Ended,\n        Canceled\n    }\n\n    State public auctionState;\n\n    uint256 public highestBindingBid;\n    address payable public highestBidder;\n\n    mapping(address => uint256) public bids;\n    uint256 bidIncrement;\n\n    event AuctionStateChange(State auctionState);\n\n    //externally owned account\n    constructor(address EOA) {\n        owner = payable(EOA);\n        auctionState = State.Running;\n        startBlock = block.number;\n        endBlock = startBlock + 3;\n        ipfsHash = \"\";\n        bidIncrement = 1000000000000000000;\n    }\n\n    modifier onlyOwner() {\n        require(msg.sender == owner);\n        _;\n    }\n\n    modifier notOwner() {\n        require(msg.sender != owner);\n        _;\n    }\n\n    modifier afterStart() {\n        require(block.number >= startBlock);\n        _;\n    }\n\n    modifier beforeEnd() {\n        require(block.number <= endBlock);\n        _;\n    }\n\n    function min(uint256 a, uint256 b) internal pure returns (uint256) {\n        if (a <= b) {\n            return a;\n        } else {\n            return b;\n        }\n    }\n\n    function cancelAuction() public onlyOwner {\n        auctionState = State.Canceled;\n        emit AuctionStateChange(auctionState);\n    }\n\n    function finalizeAuction() public {\n        require(auctionState == State.Canceled || block.number > endBlock);\n        require(msg.sender == owner || bids[msg.sender] > 0);\n\n        address payable recipient;\n        uint256 value;\n\n        if (auctionState == State.Canceled) {\n            recipient = payable(msg.sender);\n            value = bids[msg.sender];\n        } else {\n            //ended\n            if (msg.sender == owner) {\n                recipient == owner;\n                value = highestBindingBid;\n            } else {\n                if (msg.sender == highestBidder) {\n                    //bidder owner\n                    recipient = highestBidder;\n                    value = bids[highestBidder] - highestBindingBid;\n                } else {\n                    // other bidders\n                    recipient = payable(msg.sender);\n                    value = bids[msg.sender];\n                }\n            }\n        }\n\n        bids[recipient] = 0; //reset bids of recipient so next time he calls he won't be a bidder anymore\n\n        recipient.transfer(value);\n    }\n\n    function placeBid() public payable notOwner afterStart beforeEnd {\n        require(auctionState == State.Running, \"Auction not running\");\n        require(msg.value >= 100, \"Value is not enough\");\n\n        uint256 currentBid = bids[msg.sender] + msg.value;\n        require(currentBid > highestBindingBid, \"Bid not enough\");\n\n        bids[msg.sender] = currentBid;\n\n        if (currentBid <= bids[highestBidder]) {\n            // your own bid\n            highestBindingBid = min(\n                currentBid + bidIncrement,\n                bids[highestBidder]\n            );\n        } else {\n            highestBindingBid = min(\n                currentBid,\n                bids[highestBidder] + bidIncrement\n            );\n            highestBidder = payable(msg.sender);\n        }\n    }\n}\n",
  "sourcePath": "/home/arthur/Desktop/Arthur/Codigos/blockchain/auction-dapp/contracts/Auction.sol",
  "compiler": {
    "name": "solc",
    "version": "0.8.0+commit.c7dfd78e.Emscripten.clang"
  },
  "schemaVersion": "3.4.3",
  "updatedAt": "2021-11-11T11:59:46.809Z",
  "networkType": "ethereum",
  "devdoc": {
    "kind": "dev",
    "methods": {},
    "version": 1
  },
  "userdoc": {
    "kind": "user",
    "methods": {},
    "version": 1
  }
}