{
  "contractName": "AuctionCreator",
  "abi": [
    {
      "anonymous": false,
      "inputs": [
        {
          "indexed": false,
          "internalType": "contract Auction",
          "name": "_auction",
          "type": "address"
        }
      ],
      "name": "AuctionCreated",
      "type": "event"
    },
    {
      "inputs": [
        {
          "internalType": "uint256",
          "name": "",
          "type": "uint256"
        }
      ],
      "name": "auctions",
      "outputs": [
        {
          "internalType": "contract Auction",
          "name": "",
          "type": "address"
        }
      ],
      "stateMutability": "view",
      "type": "function",
      "constant": true
    },
    {
      "inputs": [],
      "name": "getAuctions",
      "outputs": [
        {
          "internalType": "contract Auction[]",
          "name": "",
          "type": "address[]"
        }
      ],
      "stateMutability": "view",
      "type": "function",
      "constant": true
    },
    {
      "inputs": [],
      "name": "createAuction",
      "outputs": [],
      "stateMutability": "nonpayable",
      "type": "function"
    }
  ],
  "bytecode": "0x608060405234801561001057600080fd5b50611d43806100206000396000f3fe608060405234801561001057600080fd5b50600436106100415760003560e01c8063571a26a014610046578063d7c0691914610076578063f581144714610094575b600080fd5b610060600480360381019061005b9190610263565b61009e565b60405161006d919061036c565b60405180910390f35b61007e6100dd565b60405161008b919061034a565b60405180910390f35b61009c61016b565b005b600081815481106100ae57600080fd5b906000526020600020016000915054906101000a900473ffffffffffffffffffffffffffffffffffffffff1681565b6060600080548060200260200160405190810160405280929190818152602001828054801561016157602002820191906000526020600020905b8160009054906101000a900473ffffffffffffffffffffffffffffffffffffffff1673ffffffffffffffffffffffffffffffffffffffff1681526020019060010190808311610117575b5050505050905090565b60003360405161017a90610240565b610184919061032f565b604051809103906000f0801580156101a0573d6000803e3d6000fd5b5090507f8a8cc462d00726e0f8c031dd2d6b9dcdf0794fb27a88579830dadee27d43ea7c816040516101d2919061036c565b60405180910390a16000819080600181540180825580915050600190039060005260206000200160009091909190916101000a81548173ffffffffffffffffffffffffffffffffffffffff021916908373ffffffffffffffffffffffffffffffffffffffff16021790555050565b6118d6806200043883390190565b60008135905061025d81610420565b92915050565b60006020828403121561027557600080fd5b60006102838482850161024e565b91505092915050565b60006102988383610311565b60208301905092915050565b6102ad816103c0565b82525050565b60006102be82610397565b6102c881856103af565b93506102d383610387565b8060005b838110156103045781516102eb888261028c565b97506102f6836103a2565b9250506001810190506102d7565b5085935050505092915050565b61031a816103fc565b82525050565b610329816103fc565b82525050565b600060208201905061034460008301846102a4565b92915050565b6000602082019050818103600083015261036481846102b3565b905092915050565b60006020820190506103816000830184610320565b92915050565b6000819050602082019050919050565b600081519050919050565b6000602082019050919050565b600082825260208201905092915050565b60006103cb826103d2565b9050919050565b600073ffffffffffffffffffffffffffffffffffffffff82169050919050565b6000819050919050565b60006104078261040e565b9050919050565b6000610419826103d2565b9050919050565b610429816103f2565b811461043457600080fd5b5056fe60806040523480156200001157600080fd5b50604051620018d6380380620018d68339818101604052810190620000379190620001ec565b806000806101000a81548173ffffffffffffffffffffffffffffffffffffffff021916908373ffffffffffffffffffffffffffffffffffffffff1602179055506001600460006101000a81548160ff02191690836003811115620000c4577f4e487b7100000000000000000000000000000000000000000000000000000000600052602160045260246000fd5b0217905550436001819055506003600154620000e1919062000218565b60028190555060405180602001604052806000815250600390805190602001906200010e92919062000125565b50670de0b6b3a76400006009819055505062000361565b8280546200013390620002b3565b90600052602060002090601f016020900481019282620001575760008555620001a3565b82601f106200017257805160ff1916838001178555620001a3565b82800160010185558215620001a3579182015b82811115620001a257825182559160200191906001019062000185565b5b509050620001b29190620001b6565b5090565b5b80821115620001d1576000816000905550600101620001b7565b5090565b600081519050620001e68162000347565b92915050565b600060208284031215620001ff57600080fd5b60006200020f84828501620001d5565b91505092915050565b60006200022582620002a9565b91506200023283620002a9565b9250827fffffffffffffffffffffffffffffffffffffffffffffffffffffffffffffffff038211156200026a5762000269620002e9565b5b828201905092915050565b6000620002828262000289565b9050919050565b600073ffffffffffffffffffffffffffffffffffffffff82169050919050565b6000819050919050565b60006002820490506001821680620002cc57607f821691505b60208210811415620002e357620002e262000318565b5b50919050565b7f4e487b7100000000000000000000000000000000000000000000000000000000600052601160045260246000fd5b7f4e487b7100000000000000000000000000000000000000000000000000000000600052602260045260246000fd5b620003528162000275565b81146200035e57600080fd5b50565b61156580620003716000396000f3fe6080604052600436106100c25760003560e01c80638fa8b7901161007f578063c623674f11610059578063c623674f1461025a578063ecfc7ecc14610285578063f5b56c561461028f578063f77282ab146102ba576100c2565b80638fa8b790146101ed57806391f9015714610204578063b81c78ec1461022f576100c2565b8063083c6323146100c7578063480892a9146100f257806348cd4cb11461012f57806362ea82db1461015a5780637fb45099146101975780638da5cb5b146101c2575b600080fd5b3480156100d357600080fd5b506100dc6102d1565b6040516100e991906111f5565b60405180910390f35b3480156100fe57600080fd5b5061011960048036038101906101149190610f29565b6102d7565b60405161012691906111f5565b60405180910390f35b34801561013b57600080fd5b506101446102fb565b60405161015191906111f5565b60405180910390f35b34801561016657600080fd5b50610181600480360381019061017c9190610f00565b610301565b60405161018e91906111f5565b60405180910390f35b3480156101a357600080fd5b506101ac610319565b6040516101b99190611158565b60405180910390f35b3480156101ce57600080fd5b506101d761032c565b6040516101e4919061111b565b60405180910390f35b3480156101f957600080fd5b50610202610350565b005b34801561021057600080fd5b50610219610441565b604051610226919061111b565b60405180910390f35b34801561023b57600080fd5b50610244610467565b6040516102519190611136565b60405180910390f35b34801561026657600080fd5b5061026f6104bf565b60405161027c9190611173565b60405180910390f35b61028d61054d565b005b34801561029b57600080fd5b506102a46109b1565b6040516102b191906111f5565b60405180910390f35b3480156102c657600080fd5b506102cf6109b7565b005b60025481565b600781815481106102e757600080fd5b906000526020600020016000915090505481565b60015481565b60086020528060005260406000206000915090505481565b600460009054906101000a900460ff1681565b60008054906101000a900473ffffffffffffffffffffffffffffffffffffffff1681565b60008054906101000a900473ffffffffffffffffffffffffffffffffffffffff1673ffffffffffffffffffffffffffffffffffffffff163373ffffffffffffffffffffffffffffffffffffffff16146103a857600080fd5b6003600460006101000a81548160ff021916908360038111156103f4577f4e487b7100000000000000000000000000000000000000000000000000000000600052602160045260246000fd5b02179055507f7c82c24d979e6ebc7d62b7785e8d0632f3308fdb0649ab74aa86f13be9a66058600460009054906101000a900460ff166040516104379190611158565b60405180910390a1565b600660009054906101000a900473ffffffffffffffffffffffffffffffffffffffff1681565b606060078054806020026020016040519081016040528092919081815260200182805480156104b557602002820191906000526020600020905b8154815260200190600101908083116104a1575b5050505050905090565b600380546104cc9061141d565b80601f01602080910402602001604051908101604052809291908181526020018280546104f89061141d565b80156105455780601f1061051a57610100808354040283529160200191610545565b820191906000526020600020905b81548152906001019060200180831161052857829003601f168201915b505050505081565b60008054906101000a900473ffffffffffffffffffffffffffffffffffffffff1673ffffffffffffffffffffffffffffffffffffffff163373ffffffffffffffffffffffffffffffffffffffff1614156105a657600080fd5b6001544310156105b557600080fd5b6002544311156105c457600080fd5b600160038111156105fe577f4e487b7100000000000000000000000000000000000000000000000000000000600052602160045260246000fd5b600460009054906101000a900460ff166003811115610646577f4e487b7100000000000000000000000000000000000000000000000000000000600052602160045260246000fd5b14610686576040517f08c379a000000000000000000000000000000000000000000000000000000000815260040161067d906111b5565b60405180910390fd5b60643410156106ca576040517f08c379a00000000000000000000000000000000000000000000000000000000081526004016106c1906111d5565b60405180910390fd5b600034600860003373ffffffffffffffffffffffffffffffffffffffff1673ffffffffffffffffffffffffffffffffffffffff1681526020019081526020016000205461071791906112b7565b9050600554811161075d576040517f08c379a000000000000000000000000000000000000000000000000000000000815260040161075490611195565b60405180910390fd5b80600860003373ffffffffffffffffffffffffffffffffffffffff1673ffffffffffffffffffffffffffffffffffffffff16815260200190815260200160002081905550600781908060018154018082558091505060019003906000526020600020016000909190919091505560086000600660009054906101000a900473ffffffffffffffffffffffffffffffffffffffff1673ffffffffffffffffffffffffffffffffffffffff1673ffffffffffffffffffffffffffffffffffffffff1681526020019081526020016000205481116108b5576108aa6009548261084391906112b7565b60086000600660009054906101000a900473ffffffffffffffffffffffffffffffffffffffff1673ffffffffffffffffffffffffffffffffffffffff1673ffffffffffffffffffffffffffffffffffffffff16815260200190815260200160002054610ebb565b600581905550610975565b61092d8160095460086000600660009054906101000a900473ffffffffffffffffffffffffffffffffffffffff1673ffffffffffffffffffffffffffffffffffffffff1673ffffffffffffffffffffffffffffffffffffffff1681526020019081526020016000205461092891906112b7565b610ebb565b60058190555033600660006101000a81548173ffffffffffffffffffffffffffffffffffffffff021916908373ffffffffffffffffffffffffffffffffffffffff1602179055505b7f5445de3f4fe13efb115ec05c57e09cc0e277801d0cd2ae780457ebcd8688c39181336040516109a6929190611210565b60405180910390a150565b60055481565b6003808111156109f0577f4e487b7100000000000000000000000000000000000000000000000000000000600052602160045260246000fd5b600460009054906101000a900460ff166003811115610a38577f4e487b7100000000000000000000000000000000000000000000000000000000600052602160045260246000fd5b1480610a45575060025443115b610a4e57600080fd5b60008054906101000a900473ffffffffffffffffffffffffffffffffffffffff1673ffffffffffffffffffffffffffffffffffffffff163373ffffffffffffffffffffffffffffffffffffffff161480610ae757506000600860003373ffffffffffffffffffffffffffffffffffffffff1673ffffffffffffffffffffffffffffffffffffffff16815260200190815260200160002054115b610af057600080fd5b600080600380811115610b2c577f4e487b7100000000000000000000000000000000000000000000000000000000600052602160045260246000fd5b600460009054906101000a900460ff166003811115610b74577f4e487b7100000000000000000000000000000000000000000000000000000000600052602160045260246000fd5b1415610bc457339150600860003373ffffffffffffffffffffffffffffffffffffffff1673ffffffffffffffffffffffffffffffffffffffff168152602001908152602001600020549050610df2565b6002600460006101000a81548160ff02191690836003811115610c10577f4e487b7100000000000000000000000000000000000000000000000000000000600052602160045260246000fd5b02179055507f7c82c24d979e6ebc7d62b7785e8d0632f3308fdb0649ab74aa86f13be9a66058600460009054906101000a900460ff16604051610c539190611158565b60405180910390a160008054906101000a900473ffffffffffffffffffffffffffffffffffffffff1673ffffffffffffffffffffffffffffffffffffffff163373ffffffffffffffffffffffffffffffffffffffff161415610cb9576005549050610df1565b600660009054906101000a900473ffffffffffffffffffffffffffffffffffffffff1673ffffffffffffffffffffffffffffffffffffffff163373ffffffffffffffffffffffffffffffffffffffff161415610daa57600660009054906101000a900473ffffffffffffffffffffffffffffffffffffffff16915060055460086000600660009054906101000a900473ffffffffffffffffffffffffffffffffffffffff1673ffffffffffffffffffffffffffffffffffffffff1673ffffffffffffffffffffffffffffffffffffffff16815260200190815260200160002054610da3919061130d565b9050610df0565b339150600860003373ffffffffffffffffffffffffffffffffffffffff1673ffffffffffffffffffffffffffffffffffffffff1681526020019081526020016000205490505b5b5b6000600860008473ffffffffffffffffffffffffffffffffffffffff1673ffffffffffffffffffffffffffffffffffffffff168152602001908152602001600020819055508173ffffffffffffffffffffffffffffffffffffffff166108fc829081150290604051600060405180830381858888f19350505050158015610e7d573d6000803e3d6000fd5b507f95b73f79c6d7b09d4dd9a323589aec50a424621f53a70ece1cc21aa75554b5198183604051610eaf929190611239565b60405180910390a15050565b6000818311610ecc57829050610ed0565b8190505b92915050565b600081359050610ee581611501565b92915050565b600081359050610efa81611518565b92915050565b600060208284031215610f1257600080fd5b6000610f2084828501610ed6565b91505092915050565b600060208284031215610f3b57600080fd5b6000610f4984828501610eeb565b91505092915050565b6000610f5e83836110fd565b60208301905092915050565b610f73816113a2565b82525050565b610f8281611353565b82525050565b610f9181611341565b82525050565b6000610fa282611272565b610fac8185611295565b9350610fb783611262565b8060005b83811015610fe8578151610fcf8882610f52565b9750610fda83611288565b925050600181019050610fbb565b5085935050505092915050565b610ffe816113b4565b82525050565b600061100f8261127d565b61101981856112a6565b93506110298185602086016113ea565b611032816114dc565b840191505092915050565b600061104a600e836112a6565b91507f426964206e6f7420656e6f7567680000000000000000000000000000000000006000830152602082019050919050565b600061108a6013836112a6565b91507f41756374696f6e206e6f742072756e6e696e67000000000000000000000000006000830152602082019050919050565b60006110ca6013836112a6565b91507f56616c7565206973206e6f7420656e6f756768000000000000000000000000006000830152602082019050919050565b61110681611398565b82525050565b61111581611398565b82525050565b60006020820190506111306000830184610f79565b92915050565b600060208201905081810360008301526111508184610f97565b905092915050565b600060208201905061116d6000830184610ff5565b92915050565b6000602082019050818103600083015261118d8184611004565b905092915050565b600060208201905081810360008301526111ae8161103d565b9050919050565b600060208201905081810360008301526111ce8161107d565b9050919050565b600060208201905081810360008301526111ee816110bd565b9050919050565b600060208201905061120a600083018461110c565b92915050565b6000604082019050611225600083018561110c565b6112326020830184610f88565b9392505050565b600060408201905061124e600083018561110c565b61125b6020830184610f6a565b9392505050565b6000819050602082019050919050565b600081519050919050565b600081519050919050565b6000602082019050919050565b600082825260208201905092915050565b600082825260208201905092915050565b60006112c282611398565b91506112cd83611398565b9250827fffffffffffffffffffffffffffffffffffffffffffffffffffffffffffffffff038211156113025761130161144f565b5b828201905092915050565b600061131882611398565b915061132383611398565b9250828210156113365761133561144f565b5b828203905092915050565b600061134c82611378565b9050919050565b600061135e82611378565b9050919050565b6000819050611373826114ed565b919050565b600073ffffffffffffffffffffffffffffffffffffffff82169050919050565b6000819050919050565b60006113ad826113c6565b9050919050565b60006113bf82611365565b9050919050565b60006113d1826113d8565b9050919050565b60006113e382611378565b9050919050565b60005b838110156114085780820151818401526020810190506113ed565b83811115611417576000848401525b50505050565b6000600282049050600182168061143557607f821691505b60208210811415611449576114486114ad565b5b50919050565b7f4e487b7100000000000000000000000000000000000000000000000000000000600052601160045260246000fd5b7f4e487b7100000000000000000000000000000000000000000000000000000000600052602160045260246000fd5b7f4e487b7100000000000000000000000000000000000000000000000000000000600052602260045260246000fd5b6000601f19601f8301169050919050565b600481106114fe576114fd61147e565b5b50565b61150a81611341565b811461151557600080fd5b50565b61152181611398565b811461152c57600080fd5b5056fea2646970667358221220cb6d25dcd4dae9a4e34ada75e87dfb0b8d7caa093fad62395ce2655047d5d08964736f6c63430008000033a26469706673582212201bff499540d506165c5af45ea598e99ba3244964a23fef43a98558ef35ee280264736f6c63430008000033",
  "immutableReferences": {},
  "source": "// SPDX-License-Identifier: GPL-3.0\npragma solidity >=0.7.0 <0.9.0;\n\nimport \"./Auction.sol\";\n\ncontract AuctionCreator {\n    Auction[] public auctions;\n\n    event AuctionCreated(Auction _auction);\n\n    function getAuctions() external view returns (Auction[] memory) {\n        return auctions;\n    }\n\n    function createAuction() public {\n        Auction newAuction = new Auction(msg.sender);\n        emit AuctionCreated(newAuction);\n        auctions.push(newAuction);\n    }\n}\n",
  "sourcePath": "/home/arthur/Desktop/Arthur/Codigos/blockchain/auction-dapp/contracts/AuctionCreator.sol",
  "compiler": {
    "name": "solc",
    "version": "0.8.0+commit.c7dfd78e.Emscripten.clang"
  },
  "schemaVersion": "3.4.3",
  "updatedAt": "2021-11-18T04:08:06.848Z",
  "networkType": "ethereum",
  "devdoc": {
    "kind": "dev",
    "methods": {},
    "version": 1
  },
  "userdoc": {
    "kind": "user",
    "methods": {},
    "version": 1
  }
}