{
  "contractName": "Auction",
  "abi": [
    {
      "inputs": [
        {
          "internalType": "address",
          "name": "EOA",
          "type": "address"
        }
      ],
      "stateMutability": "nonpayable",
      "type": "constructor"
    },
    {
      "anonymous": false,
      "inputs": [
        {
          "indexed": false,
          "internalType": "uint256",
          "name": "value",
          "type": "uint256"
        },
        {
          "indexed": false,
          "internalType": "address",
          "name": "_address",
          "type": "address"
        }
      ],
      "name": "AuctionFinalized",
      "type": "event"
    },
    {
      "anonymous": false,
      "inputs": [
        {
          "indexed": false,
          "internalType": "enum Auction.State",
          "name": "auctionState",
          "type": "uint8"
        }
      ],
      "name": "AuctionStateChange",
      "type": "event"
    },
    {
      "anonymous": false,
      "inputs": [
        {
          "indexed": false,
          "internalType": "uint256",
          "name": "value",
          "type": "uint256"
        },
        {
          "indexed": false,
          "internalType": "address",
          "name": "_address",
          "type": "address"
        }
      ],
      "name": "BidPlaced",
      "type": "event"
    },
    {
      "inputs": [],
      "name": "auctionState",
      "outputs": [
        {
          "internalType": "enum Auction.State",
          "name": "",
          "type": "uint8"
        }
      ],
      "stateMutability": "view",
      "type": "function",
      "constant": true
    },
    {
      "inputs": [
        {
          "internalType": "address",
          "name": "",
          "type": "address"
        }
      ],
      "name": "bids",
      "outputs": [
        {
          "internalType": "uint256",
          "name": "",
          "type": "uint256"
        }
      ],
      "stateMutability": "view",
      "type": "function",
      "constant": true
    },
    {
      "inputs": [
        {
          "internalType": "uint256",
          "name": "",
          "type": "uint256"
        }
      ],
      "name": "bidsArray",
      "outputs": [
        {
          "internalType": "uint256",
          "name": "bid",
          "type": "uint256"
        },
        {
          "internalType": "address payable",
          "name": "bidder",
          "type": "address"
        }
      ],
      "stateMutability": "view",
      "type": "function",
      "constant": true
    },
    {
      "inputs": [],
      "name": "endDate",
      "outputs": [
        {
          "internalType": "uint256",
          "name": "",
          "type": "uint256"
        }
      ],
      "stateMutability": "view",
      "type": "function",
      "constant": true
    },
    {
      "inputs": [],
      "name": "highestBidder",
      "outputs": [
        {
          "internalType": "address payable",
          "name": "",
          "type": "address"
        }
      ],
      "stateMutability": "view",
      "type": "function",
      "constant": true
    },
    {
      "inputs": [],
      "name": "highestBindingBid",
      "outputs": [
        {
          "internalType": "uint256",
          "name": "",
          "type": "uint256"
        }
      ],
      "stateMutability": "view",
      "type": "function",
      "constant": true
    },
    {
      "inputs": [],
      "name": "ipfsHash",
      "outputs": [
        {
          "internalType": "string",
          "name": "",
          "type": "string"
        }
      ],
      "stateMutability": "view",
      "type": "function",
      "constant": true
    },
    {
      "inputs": [],
      "name": "owner",
      "outputs": [
        {
          "internalType": "address payable",
          "name": "",
          "type": "address"
        }
      ],
      "stateMutability": "view",
      "type": "function",
      "constant": true
    },
    {
      "inputs": [],
      "name": "startDate",
      "outputs": [
        {
          "internalType": "uint256",
          "name": "",
          "type": "uint256"
        }
      ],
      "stateMutability": "view",
      "type": "function",
      "constant": true
    },
    {
      "inputs": [],
      "name": "cancelAuction",
      "outputs": [],
      "stateMutability": "nonpayable",
      "type": "function"
    },
    {
      "inputs": [],
      "name": "finalizeAuction",
      "outputs": [],
      "stateMutability": "nonpayable",
      "type": "function"
    },
    {
      "inputs": [],
      "name": "getBids",
      "outputs": [
        {
          "components": [
            {
              "internalType": "uint256",
              "name": "bid",
              "type": "uint256"
            },
            {
              "internalType": "address payable",
              "name": "bidder",
              "type": "address"
            }
          ],
          "internalType": "struct Auction.Bid[]",
          "name": "",
          "type": "tuple[]"
        }
      ],
      "stateMutability": "view",
      "type": "function",
      "constant": true
    },
    {
      "inputs": [],
      "name": "placeBid",
      "outputs": [],
      "stateMutability": "payable",
      "type": "function",
      "payable": true
    }
  ],
  "bytecode": "0x60806040523480156200001157600080fd5b5060405162001aa838038062001aa88339818101604052810190620000379190620001ee565b806000806101000a81548173ffffffffffffffffffffffffffffffffffffffff021916908373ffffffffffffffffffffffffffffffffffffffff1602179055506001600460006101000a81548160ff02191690836003811115620000c4577f4e487b7100000000000000000000000000000000000000000000000000000000600052602160045260246000fd5b02179055504260018190555062093a80600154620000e391906200021a565b60028190555060405180602001604052806000815250600390805190602001906200011092919062000127565b50670de0b6b3a76400006009819055505062000363565b8280546200013590620002b5565b90600052602060002090601f016020900481019282620001595760008555620001a5565b82601f106200017457805160ff1916838001178555620001a5565b82800160010185558215620001a5579182015b82811115620001a457825182559160200191906001019062000187565b5b509050620001b49190620001b8565b5090565b5b80821115620001d3576000816000905550600101620001b9565b5090565b600081519050620001e88162000349565b92915050565b6000602082840312156200020157600080fd5b60006200021184828501620001d7565b91505092915050565b60006200022782620002ab565b91506200023483620002ab565b9250827fffffffffffffffffffffffffffffffffffffffffffffffffffffffffffffffff038211156200026c576200026b620002eb565b5b828201905092915050565b600062000284826200028b565b9050919050565b600073ffffffffffffffffffffffffffffffffffffffff82169050919050565b6000819050919050565b60006002820490506001821680620002ce57607f821691505b60208210811415620002e557620002e46200031a565b5b50919050565b7f4e487b7100000000000000000000000000000000000000000000000000000000600052601160045260246000fd5b7f4e487b7100000000000000000000000000000000000000000000000000000000600052602260045260246000fd5b620003548162000277565b81146200036057600080fd5b50565b61173580620003736000396000f3fe6080604052600436106100c25760003560e01c806391f901571161007f578063c623674f11610059578063c623674f1461025b578063ecfc7ecc14610286578063f5b56c5614610290578063f77282ab146102bb576100c2565b806391f90157146101da578063b81c78ec14610205578063c24a0f8b14610230576100c2565b80630b97bc86146100c7578063480892a9146100f257806362ea82db146101305780637fb450991461016d5780638da5cb5b146101985780638fa8b790146101c3575b600080fd5b3480156100d357600080fd5b506100dc6102d2565b6040516100e9919061139c565b60405180910390f35b3480156100fe57600080fd5b5061011960048036038101906101149190611092565b6102d8565b604051610127929190611409565b60405180910390f35b34801561013c57600080fd5b5061015760048036038101906101529190611069565b61032c565b604051610164919061139c565b60405180910390f35b34801561017957600080fd5b50610182610344565b60405161018f91906112ff565b60405180910390f35b3480156101a457600080fd5b506101ad610357565b6040516101ba91906112c2565b60405180910390f35b3480156101cf57600080fd5b506101d861037b565b005b3480156101e657600080fd5b506101ef61046c565b6040516101fc91906112c2565b60405180910390f35b34801561021157600080fd5b5061021a610492565b60405161022791906112dd565b60405180910390f35b34801561023c57600080fd5b50610245610551565b604051610252919061139c565b60405180910390f35b34801561026757600080fd5b50610270610557565b60405161027d919061131a565b60405180910390f35b61028e6105e5565b005b34801561029c57600080fd5b506102a5610aea565b6040516102b2919061139c565b60405180910390f35b3480156102c757600080fd5b506102d0610af0565b005b60015481565b600781815481106102e857600080fd5b90600052602060002090600202016000915090508060000154908060010160009054906101000a900473ffffffffffffffffffffffffffffffffffffffff16905082565b60086020528060005260406000206000915090505481565b600460009054906101000a900460ff1681565b60008054906101000a900473ffffffffffffffffffffffffffffffffffffffff1681565b60008054906101000a900473ffffffffffffffffffffffffffffffffffffffff1673ffffffffffffffffffffffffffffffffffffffff163373ffffffffffffffffffffffffffffffffffffffff16146103d357600080fd5b6003600460006101000a81548160ff0219169083600381111561041f577f4e487b7100000000000000000000000000000000000000000000000000000000600052602160045260246000fd5b02179055507f7c82c24d979e6ebc7d62b7785e8d0632f3308fdb0649ab74aa86f13be9a66058600460009054906101000a900460ff1660405161046291906112ff565b60405180910390a1565b600660009054906101000a900473ffffffffffffffffffffffffffffffffffffffff1681565b60606007805480602002602001604051908101604052809291908181526020016000905b828210156105485783829060005260206000209060020201604051806040016040529081600082015481526020016001820160009054906101000a900473ffffffffffffffffffffffffffffffffffffffff1673ffffffffffffffffffffffffffffffffffffffff1673ffffffffffffffffffffffffffffffffffffffff1681525050815260200190600101906104b6565b50505050905090565b60025481565b60038054610564906115ed565b80601f0160208091040260200160405190810160405280929190818152602001828054610590906115ed565b80156105dd5780601f106105b2576101008083540402835291602001916105dd565b820191906000526020600020905b8154815290600101906020018083116105c057829003601f168201915b505050505081565b60008054906101000a900473ffffffffffffffffffffffffffffffffffffffff1673ffffffffffffffffffffffffffffffffffffffff163373ffffffffffffffffffffffffffffffffffffffff16141561063e57600080fd5b60015442101561064d57600080fd5b60025442111561065c57600080fd5b60016003811115610696577f4e487b7100000000000000000000000000000000000000000000000000000000600052602160045260246000fd5b600460009054906101000a900460ff1660038111156106de577f4e487b7100000000000000000000000000000000000000000000000000000000600052602160045260246000fd5b1461071e576040517f08c379a00000000000000000000000000000000000000000000000000000000081526004016107159061135c565b60405180910390fd5b6064341015610762576040517f08c379a00000000000000000000000000000000000000000000000000000000081526004016107599061137c565b60405180910390fd5b600034600860003373ffffffffffffffffffffffffffffffffffffffff1673ffffffffffffffffffffffffffffffffffffffff168152602001908152602001600020546107af9190611487565b905060055481116107f5576040517f08c379a00000000000000000000000000000000000000000000000000000000081526004016107ec9061133c565b60405180910390fd5b80600860003373ffffffffffffffffffffffffffffffffffffffff1673ffffffffffffffffffffffffffffffffffffffff1681526020019081526020016000208190555061084161100f565b8181600001818152505033816020019073ffffffffffffffffffffffffffffffffffffffff16908173ffffffffffffffffffffffffffffffffffffffff168152505060078190806001815401808255809150506001900390600052602060002090600202016000909190919091506000820151816000015560208201518160010160006101000a81548173ffffffffffffffffffffffffffffffffffffffff021916908373ffffffffffffffffffffffffffffffffffffffff160217905550505060086000600660009054906101000a900473ffffffffffffffffffffffffffffffffffffffff1673ffffffffffffffffffffffffffffffffffffffff1673ffffffffffffffffffffffffffffffffffffffff1681526020019081526020016000205482116109ed576109e26009548361097b9190611487565b60086000600660009054906101000a900473ffffffffffffffffffffffffffffffffffffffff1673ffffffffffffffffffffffffffffffffffffffff1673ffffffffffffffffffffffffffffffffffffffff16815260200190815260200160002054610ff4565b600581905550610aad565b610a658260095460086000600660009054906101000a900473ffffffffffffffffffffffffffffffffffffffff1673ffffffffffffffffffffffffffffffffffffffff1673ffffffffffffffffffffffffffffffffffffffff16815260200190815260200160002054610a609190611487565b610ff4565b60058190555033600660006101000a81548173ffffffffffffffffffffffffffffffffffffffff021916908373ffffffffffffffffffffffffffffffffffffffff1602179055505b7f5445de3f4fe13efb115ec05c57e09cc0e277801d0cd2ae780457ebcd8688c3918233604051610ade9291906113b7565b60405180910390a15050565b60055481565b600380811115610b29577f4e487b7100000000000000000000000000000000000000000000000000000000600052602160045260246000fd5b600460009054906101000a900460ff166003811115610b71577f4e487b7100000000000000000000000000000000000000000000000000000000600052602160045260246000fd5b1480610b7e575060025443115b610b8757600080fd5b60008054906101000a900473ffffffffffffffffffffffffffffffffffffffff1673ffffffffffffffffffffffffffffffffffffffff163373ffffffffffffffffffffffffffffffffffffffff161480610c2057506000600860003373ffffffffffffffffffffffffffffffffffffffff1673ffffffffffffffffffffffffffffffffffffffff16815260200190815260200160002054115b610c2957600080fd5b600080600380811115610c65577f4e487b7100000000000000000000000000000000000000000000000000000000600052602160045260246000fd5b600460009054906101000a900460ff166003811115610cad577f4e487b7100000000000000000000000000000000000000000000000000000000600052602160045260246000fd5b1415610cfd57339150600860003373ffffffffffffffffffffffffffffffffffffffff1673ffffffffffffffffffffffffffffffffffffffff168152602001908152602001600020549050610f2b565b6002600460006101000a81548160ff02191690836003811115610d49577f4e487b7100000000000000000000000000000000000000000000000000000000600052602160045260246000fd5b02179055507f7c82c24d979e6ebc7d62b7785e8d0632f3308fdb0649ab74aa86f13be9a66058600460009054906101000a900460ff16604051610d8c91906112ff565b60405180910390a160008054906101000a900473ffffffffffffffffffffffffffffffffffffffff1673ffffffffffffffffffffffffffffffffffffffff163373ffffffffffffffffffffffffffffffffffffffff161415610df2576005549050610f2a565b600660009054906101000a900473ffffffffffffffffffffffffffffffffffffffff1673ffffffffffffffffffffffffffffffffffffffff163373ffffffffffffffffffffffffffffffffffffffff161415610ee357600660009054906101000a900473ffffffffffffffffffffffffffffffffffffffff16915060055460086000600660009054906101000a900473ffffffffffffffffffffffffffffffffffffffff1673ffffffffffffffffffffffffffffffffffffffff1673ffffffffffffffffffffffffffffffffffffffff16815260200190815260200160002054610edc91906114dd565b9050610f29565b339150600860003373ffffffffffffffffffffffffffffffffffffffff1673ffffffffffffffffffffffffffffffffffffffff1681526020019081526020016000205490505b5b5b6000600860008473ffffffffffffffffffffffffffffffffffffffff1673ffffffffffffffffffffffffffffffffffffffff168152602001908152602001600020819055508173ffffffffffffffffffffffffffffffffffffffff166108fc829081150290604051600060405180830381858888f19350505050158015610fb6573d6000803e3d6000fd5b507f95b73f79c6d7b09d4dd9a323589aec50a424621f53a70ece1cc21aa75554b5198183604051610fe89291906113e0565b60405180910390a15050565b600081831161100557829050611009565b8190505b92915050565b604051806040016040528060008152602001600073ffffffffffffffffffffffffffffffffffffffff1681525090565b60008135905061104e816116d1565b92915050565b600081359050611063816116e8565b92915050565b60006020828403121561107b57600080fd5b60006110898482850161103f565b91505092915050565b6000602082840312156110a457600080fd5b60006110b284828501611054565b91505092915050565b60006110c78383611275565b60408301905092915050565b6110dc81611572565b82525050565b6110eb81611523565b82525050565b6110fa81611523565b82525050565b61110981611511565b82525050565b600061111a82611442565b6111248185611465565b935061112f83611432565b8060005b8381101561116057815161114788826110bb565b975061115283611458565b925050600181019050611133565b5085935050505092915050565b61117681611584565b82525050565b60006111878261144d565b6111918185611476565b93506111a18185602086016115ba565b6111aa816116ac565b840191505092915050565b60006111c2600e83611476565b91507f426964206e6f7420656e6f7567680000000000000000000000000000000000006000830152602082019050919050565b6000611202601383611476565b91507f41756374696f6e206e6f742072756e6e696e67000000000000000000000000006000830152602082019050919050565b6000611242601383611476565b91507f56616c7565206973206e6f7420656e6f756768000000000000000000000000006000830152602082019050919050565b60408201600082015161128b60008501826112a4565b50602082015161129e60208501826110e2565b50505050565b6112ad81611568565b82525050565b6112bc81611568565b82525050565b60006020820190506112d760008301846110f1565b92915050565b600060208201905081810360008301526112f7818461110f565b905092915050565b6000602082019050611314600083018461116d565b92915050565b60006020820190508181036000830152611334818461117c565b905092915050565b60006020820190508181036000830152611355816111b5565b9050919050565b60006020820190508181036000830152611375816111f5565b9050919050565b6000602082019050818103600083015261139581611235565b9050919050565b60006020820190506113b160008301846112b3565b92915050565b60006040820190506113cc60008301856112b3565b6113d96020830184611100565b9392505050565b60006040820190506113f560008301856112b3565b61140260208301846110d3565b9392505050565b600060408201905061141e60008301856112b3565b61142b60208301846110f1565b9392505050565b6000819050602082019050919050565b600081519050919050565b600081519050919050565b6000602082019050919050565b600082825260208201905092915050565b600082825260208201905092915050565b600061149282611568565b915061149d83611568565b9250827fffffffffffffffffffffffffffffffffffffffffffffffffffffffffffffffff038211156114d2576114d161161f565b5b828201905092915050565b60006114e882611568565b91506114f383611568565b9250828210156115065761150561161f565b5b828203905092915050565b600061151c82611548565b9050919050565b600061152e82611548565b9050919050565b6000819050611543826116bd565b919050565b600073ffffffffffffffffffffffffffffffffffffffff82169050919050565b6000819050919050565b600061157d82611596565b9050919050565b600061158f82611535565b9050919050565b60006115a1826115a8565b9050919050565b60006115b382611548565b9050919050565b60005b838110156115d85780820151818401526020810190506115bd565b838111156115e7576000848401525b50505050565b6000600282049050600182168061160557607f821691505b602082108114156116195761161861167d565b5b50919050565b7f4e487b7100000000000000000000000000000000000000000000000000000000600052601160045260246000fd5b7f4e487b7100000000000000000000000000000000000000000000000000000000600052602160045260246000fd5b7f4e487b7100000000000000000000000000000000000000000000000000000000600052602260045260246000fd5b6000601f19601f8301169050919050565b600481106116ce576116cd61164e565b5b50565b6116da81611511565b81146116e557600080fd5b50565b6116f181611568565b81146116fc57600080fd5b5056fea2646970667358221220d9edd32c3c11e9e3af5122b5119a3c4a44b2c612be0caacbcb3645168426060364736f6c63430008000033",
  "immutableReferences": {},
  "source": "// SPDX-License-Identifier: GPL-3.0\n\npragma solidity >=0.7.0 <0.9.0;\n\ncontract Auction {\n    address payable public owner;\n    uint256 public startDate;\n    uint256 public endDate;\n    string public ipfsHash;\n\n    enum State {\n        Started,\n        Running,\n        Ended,\n        Canceled\n    }\n\n    struct Bid {\n        uint256 bid;\n        address payable bidder;\n    }\n\n    State public auctionState;\n\n    uint256 public highestBindingBid;\n    address payable public highestBidder;\n\n    Bid[] public bidsArray;\n    mapping(address => uint256) public bids;\n    uint256 bidIncrement;\n\n    event AuctionStateChange(State auctionState);\n    event BidPlaced(uint256 value, address _address);\n    event AuctionFinalized(uint256 value, address _address);\n\n    constructor(address EOA) {\n        owner = payable(EOA);\n        auctionState = State.Running;\n        startDate = block.timestamp;\n        endDate = startDate + 604800;\n        ipfsHash = \"\";\n        bidIncrement = 1000000000000000000;\n    }\n\n    modifier onlyOwner() {\n        require(msg.sender == owner);\n        _;\n    }\n\n    modifier notOwner() {\n        require(msg.sender != owner);\n        _;\n    }\n\n    modifier afterStart() {\n        require(block.timestamp >= startDate);\n        _;\n    }\n\n    modifier beforeEnd() {\n        require(block.timestamp <= endDate);\n        _;\n    }\n\n    function min(uint256 a, uint256 b) internal pure returns (uint256) {\n        if (a <= b) {\n            return a;\n        } else {\n            return b;\n        }\n    }\n\n    function cancelAuction() public onlyOwner {\n        auctionState = State.Canceled;\n        emit AuctionStateChange(auctionState);\n    }\n\n    function finalizeAuction() public {\n        require(auctionState == State.Canceled || block.number > endDate);\n        require(msg.sender == owner || bids[msg.sender] > 0);\n\n        address payable recipient;\n        uint256 value;\n\n        if (auctionState == State.Canceled) {\n            recipient = payable(msg.sender);\n            value = bids[msg.sender];\n        } else {\n            //ended\n            auctionState = State.Ended;\n            emit AuctionStateChange(auctionState);\n            if (msg.sender == owner) {\n                recipient == msg.sender;\n                value = highestBindingBid;\n            } else {\n                if (msg.sender == highestBidder) {\n                    //bidder owner\n                    recipient = highestBidder;\n                    value = bids[highestBidder] - highestBindingBid;\n                } else {\n                    // other bidder took it\n                    recipient = payable(msg.sender);\n                    value = bids[msg.sender];\n                }\n            }\n        }\n\n        bids[recipient] = 0; //reset bids of recipient so next time he calls he won't be a bidder anymore\n        recipient.transfer(value);\n        emit AuctionFinalized(value, recipient);\n    }\n\n    function getBids() public view returns (Bid[] memory) {\n        return bidsArray;\n    }\n\n    function placeBid() public payable notOwner afterStart beforeEnd {\n        require(auctionState == State.Running, \"Auction not running\");\n        require(msg.value >= 100, \"Value is not enough\");\n\n        uint256 currentBid = bids[msg.sender] + msg.value;\n        require(currentBid > highestBindingBid, \"Bid not enough\");\n\n        bids[msg.sender] = currentBid;\n\n        Bid memory thisBid;\n        thisBid.bid = currentBid;\n        thisBid.bidder = payable(msg.sender);\n        // Bid thisBid = Bid(currentBid, msg.sender);\n        bidsArray.push(thisBid);\n\n        if (currentBid <= bids[highestBidder]) {\n            // your own bid\n            highestBindingBid = min(\n                currentBid + bidIncrement,\n                bids[highestBidder]\n            );\n        } else {\n            highestBindingBid = min(\n                currentBid,\n                bids[highestBidder] + bidIncrement\n            );\n            highestBidder = payable(msg.sender);\n        }\n\n        emit BidPlaced(currentBid, msg.sender);\n    }\n}\n",
  "sourcePath": "/home/arthur/Desktop/Arthur/Codigos/blockchain/auction-dapp/contracts/Auction.sol",
  "compiler": {
    "name": "solc",
    "version": "0.8.0+commit.c7dfd78e.Emscripten.clang"
  },
  "schemaVersion": "3.4.3",
  "updatedAt": "2021-11-23T12:22:25.918Z",
  "networkType": "ethereum",
  "devdoc": {
    "kind": "dev",
    "methods": {},
    "version": 1
  },
  "userdoc": {
    "kind": "user",
    "methods": {},
    "version": 1
  }
}