{
  "contractName": "Auction",
  "abi": [
    {
      "inputs": [
        {
          "internalType": "address",
          "name": "EOA",
          "type": "address"
        }
      ],
      "stateMutability": "nonpayable",
      "type": "constructor"
    },
    {
      "anonymous": false,
      "inputs": [
        {
          "indexed": false,
          "internalType": "enum Auction.State",
          "name": "auctionState",
          "type": "uint8"
        }
      ],
      "name": "AuctionStateChange",
      "type": "event"
    },
    {
      "inputs": [],
      "name": "auctionState",
      "outputs": [
        {
          "internalType": "enum Auction.State",
          "name": "",
          "type": "uint8"
        }
      ],
      "stateMutability": "view",
      "type": "function",
      "constant": true
    },
    {
      "inputs": [
        {
          "internalType": "address",
          "name": "",
          "type": "address"
        }
      ],
      "name": "bids",
      "outputs": [
        {
          "internalType": "uint256",
          "name": "",
          "type": "uint256"
        }
      ],
      "stateMutability": "view",
      "type": "function",
      "constant": true
    },
    {
      "inputs": [
        {
          "internalType": "uint256",
          "name": "",
          "type": "uint256"
        }
      ],
      "name": "bidsArray",
      "outputs": [
        {
          "internalType": "uint256",
          "name": "",
          "type": "uint256"
        }
      ],
      "stateMutability": "view",
      "type": "function",
      "constant": true
    },
    {
      "inputs": [],
      "name": "endBlock",
      "outputs": [
        {
          "internalType": "uint256",
          "name": "",
          "type": "uint256"
        }
      ],
      "stateMutability": "view",
      "type": "function",
      "constant": true
    },
    {
      "inputs": [],
      "name": "highestBidder",
      "outputs": [
        {
          "internalType": "address payable",
          "name": "",
          "type": "address"
        }
      ],
      "stateMutability": "view",
      "type": "function",
      "constant": true
    },
    {
      "inputs": [],
      "name": "highestBindingBid",
      "outputs": [
        {
          "internalType": "uint256",
          "name": "",
          "type": "uint256"
        }
      ],
      "stateMutability": "view",
      "type": "function",
      "constant": true
    },
    {
      "inputs": [],
      "name": "ipfsHash",
      "outputs": [
        {
          "internalType": "string",
          "name": "",
          "type": "string"
        }
      ],
      "stateMutability": "view",
      "type": "function",
      "constant": true
    },
    {
      "inputs": [],
      "name": "owner",
      "outputs": [
        {
          "internalType": "address payable",
          "name": "",
          "type": "address"
        }
      ],
      "stateMutability": "view",
      "type": "function",
      "constant": true
    },
    {
      "inputs": [],
      "name": "startBlock",
      "outputs": [
        {
          "internalType": "uint256",
          "name": "",
          "type": "uint256"
        }
      ],
      "stateMutability": "view",
      "type": "function",
      "constant": true
    },
    {
      "inputs": [],
      "name": "cancelAuction",
      "outputs": [],
      "stateMutability": "nonpayable",
      "type": "function"
    },
    {
      "inputs": [],
      "name": "finalizeAuction",
      "outputs": [],
      "stateMutability": "nonpayable",
      "type": "function"
    },
    {
      "inputs": [],
      "name": "getBids",
      "outputs": [
        {
          "internalType": "uint256[]",
          "name": "",
          "type": "uint256[]"
        }
      ],
      "stateMutability": "view",
      "type": "function",
      "constant": true
    },
    {
      "inputs": [],
      "name": "placeBid",
      "outputs": [],
      "stateMutability": "payable",
      "type": "function",
      "payable": true
    }
  ],
  "bytecode": "0x60806040523480156200001157600080fd5b5060405162001733380380620017338339818101604052810190620000379190620001ec565b806000806101000a81548173ffffffffffffffffffffffffffffffffffffffff021916908373ffffffffffffffffffffffffffffffffffffffff1602179055506001600460006101000a81548160ff02191690836003811115620000c4577f4e487b7100000000000000000000000000000000000000000000000000000000600052602160045260246000fd5b0217905550436001819055506003600154620000e1919062000218565b60028190555060405180602001604052806000815250600390805190602001906200010e92919062000125565b50670de0b6b3a76400006009819055505062000361565b8280546200013390620002b3565b90600052602060002090601f016020900481019282620001575760008555620001a3565b82601f106200017257805160ff1916838001178555620001a3565b82800160010185558215620001a3579182015b82811115620001a257825182559160200191906001019062000185565b5b509050620001b29190620001b6565b5090565b5b80821115620001d1576000816000905550600101620001b7565b5090565b600081519050620001e68162000347565b92915050565b600060208284031215620001ff57600080fd5b60006200020f84828501620001d5565b91505092915050565b60006200022582620002a9565b91506200023283620002a9565b9250827fffffffffffffffffffffffffffffffffffffffffffffffffffffffffffffffff038211156200026a5762000269620002e9565b5b828201905092915050565b6000620002828262000289565b9050919050565b600073ffffffffffffffffffffffffffffffffffffffff82169050919050565b6000819050919050565b60006002820490506001821680620002cc57607f821691505b60208210811415620002e357620002e262000318565b5b50919050565b7f4e487b7100000000000000000000000000000000000000000000000000000000600052601160045260246000fd5b7f4e487b7100000000000000000000000000000000000000000000000000000000600052602260045260246000fd5b620003528162000275565b81146200035e57600080fd5b50565b6113c280620003716000396000f3fe6080604052600436106100c25760003560e01c80638fa8b7901161007f578063c623674f11610059578063c623674f1461025a578063ecfc7ecc14610285578063f5b56c561461028f578063f77282ab146102ba576100c2565b80638fa8b790146101ed57806391f9015714610204578063b81c78ec1461022f576100c2565b8063083c6323146100c7578063480892a9146100f257806348cd4cb11461012f57806362ea82db1461015a5780637fb45099146101975780638da5cb5b146101c2575b600080fd5b3480156100d357600080fd5b506100dc6102d1565b6040516100e991906110da565b60405180910390f35b3480156100fe57600080fd5b5061011960048036038101906101149190610e2c565b6102d7565b60405161012691906110da565b60405180910390f35b34801561013b57600080fd5b506101446102fb565b60405161015191906110da565b60405180910390f35b34801561016657600080fd5b50610181600480360381019061017c9190610e03565b610301565b60405161018e91906110da565b60405180910390f35b3480156101a357600080fd5b506101ac610319565b6040516101b9919061103d565b60405180910390f35b3480156101ce57600080fd5b506101d761032c565b6040516101e49190611000565b60405180910390f35b3480156101f957600080fd5b50610202610350565b005b34801561021057600080fd5b50610219610441565b6040516102269190611000565b60405180910390f35b34801561023b57600080fd5b50610244610467565b604051610251919061101b565b60405180910390f35b34801561026657600080fd5b5061026f6104bf565b60405161027c9190611058565b60405180910390f35b61028d61054d565b005b34801561029b57600080fd5b506102a4610978565b6040516102b191906110da565b60405180910390f35b3480156102c657600080fd5b506102cf61097e565b005b60025481565b600781815481106102e757600080fd5b906000526020600020016000915090505481565b60015481565b60086020528060005260406000206000915090505481565b600460009054906101000a900460ff1681565b60008054906101000a900473ffffffffffffffffffffffffffffffffffffffff1681565b60008054906101000a900473ffffffffffffffffffffffffffffffffffffffff1673ffffffffffffffffffffffffffffffffffffffff163373ffffffffffffffffffffffffffffffffffffffff16146103a857600080fd5b6003600460006101000a81548160ff021916908360038111156103f4577f4e487b7100000000000000000000000000000000000000000000000000000000600052602160045260246000fd5b02179055507f7c82c24d979e6ebc7d62b7785e8d0632f3308fdb0649ab74aa86f13be9a66058600460009054906101000a900460ff16604051610437919061103d565b60405180910390a1565b600660009054906101000a900473ffffffffffffffffffffffffffffffffffffffff1681565b606060078054806020026020016040519081016040528092919081815260200182805480156104b557602002820191906000526020600020905b8154815260200190600101908083116104a1575b5050505050905090565b600380546104cc9061127a565b80601f01602080910402602001604051908101604052809291908181526020018280546104f89061127a565b80156105455780601f1061051a57610100808354040283529160200191610545565b820191906000526020600020905b81548152906001019060200180831161052857829003601f168201915b505050505081565b60008054906101000a900473ffffffffffffffffffffffffffffffffffffffff1673ffffffffffffffffffffffffffffffffffffffff163373ffffffffffffffffffffffffffffffffffffffff1614156105a657600080fd5b6001544310156105b557600080fd5b6002544311156105c457600080fd5b600160038111156105fe577f4e487b7100000000000000000000000000000000000000000000000000000000600052602160045260246000fd5b600460009054906101000a900460ff166003811115610646577f4e487b7100000000000000000000000000000000000000000000000000000000600052602160045260246000fd5b14610686576040517f08c379a000000000000000000000000000000000000000000000000000000000815260040161067d9061109a565b60405180910390fd5b60643410156106ca576040517f08c379a00000000000000000000000000000000000000000000000000000000081526004016106c1906110ba565b60405180910390fd5b600034600860003373ffffffffffffffffffffffffffffffffffffffff1673ffffffffffffffffffffffffffffffffffffffff16815260200190815260200160002054610717919061114a565b9050600554811161075d576040517f08c379a00000000000000000000000000000000000000000000000000000000081526004016107549061107a565b60405180910390fd5b80600860003373ffffffffffffffffffffffffffffffffffffffff1673ffffffffffffffffffffffffffffffffffffffff16815260200190815260200160002081905550600781908060018154018082558091505060019003906000526020600020016000909190919091505560086000600660009054906101000a900473ffffffffffffffffffffffffffffffffffffffff1673ffffffffffffffffffffffffffffffffffffffff1673ffffffffffffffffffffffffffffffffffffffff1681526020019081526020016000205481116108b5576108aa60095482610843919061114a565b60086000600660009054906101000a900473ffffffffffffffffffffffffffffffffffffffff1673ffffffffffffffffffffffffffffffffffffffff1673ffffffffffffffffffffffffffffffffffffffff16815260200190815260200160002054610dbe565b600581905550610975565b61092d8160095460086000600660009054906101000a900473ffffffffffffffffffffffffffffffffffffffff1673ffffffffffffffffffffffffffffffffffffffff1673ffffffffffffffffffffffffffffffffffffffff16815260200190815260200160002054610928919061114a565b610dbe565b60058190555033600660006101000a81548173ffffffffffffffffffffffffffffffffffffffff021916908373ffffffffffffffffffffffffffffffffffffffff1602179055505b50565b60055481565b6003808111156109b7577f4e487b7100000000000000000000000000000000000000000000000000000000600052602160045260246000fd5b600460009054906101000a900460ff1660038111156109ff577f4e487b7100000000000000000000000000000000000000000000000000000000600052602160045260246000fd5b1480610a0c575060025443115b610a1557600080fd5b60008054906101000a900473ffffffffffffffffffffffffffffffffffffffff1673ffffffffffffffffffffffffffffffffffffffff163373ffffffffffffffffffffffffffffffffffffffff161480610aae57506000600860003373ffffffffffffffffffffffffffffffffffffffff1673ffffffffffffffffffffffffffffffffffffffff16815260200190815260200160002054115b610ab757600080fd5b600080600380811115610af3577f4e487b7100000000000000000000000000000000000000000000000000000000600052602160045260246000fd5b600460009054906101000a900460ff166003811115610b3b577f4e487b7100000000000000000000000000000000000000000000000000000000600052602160045260246000fd5b1415610b8b57339150600860003373ffffffffffffffffffffffffffffffffffffffff1673ffffffffffffffffffffffffffffffffffffffff168152602001908152602001600020549050610d2e565b60008054906101000a900473ffffffffffffffffffffffffffffffffffffffff1673ffffffffffffffffffffffffffffffffffffffff163373ffffffffffffffffffffffffffffffffffffffff161415610bf55760008054906101000a9050506005549050610d2d565b600660009054906101000a900473ffffffffffffffffffffffffffffffffffffffff1673ffffffffffffffffffffffffffffffffffffffff163373ffffffffffffffffffffffffffffffffffffffff161415610ce657600660009054906101000a900473ffffffffffffffffffffffffffffffffffffffff16915060055460086000600660009054906101000a900473ffffffffffffffffffffffffffffffffffffffff1673ffffffffffffffffffffffffffffffffffffffff1673ffffffffffffffffffffffffffffffffffffffff16815260200190815260200160002054610cdf91906111a0565b9050610d2c565b339150600860003373ffffffffffffffffffffffffffffffffffffffff1673ffffffffffffffffffffffffffffffffffffffff1681526020019081526020016000205490505b5b5b6000600860008473ffffffffffffffffffffffffffffffffffffffff1673ffffffffffffffffffffffffffffffffffffffff168152602001908152602001600020819055508173ffffffffffffffffffffffffffffffffffffffff166108fc829081150290604051600060405180830381858888f19350505050158015610db9573d6000803e3d6000fd5b505050565b6000818311610dcf57829050610dd3565b8190505b92915050565b600081359050610de88161135e565b92915050565b600081359050610dfd81611375565b92915050565b600060208284031215610e1557600080fd5b6000610e2384828501610dd9565b91505092915050565b600060208284031215610e3e57600080fd5b6000610e4c84828501610dee565b91505092915050565b6000610e618383610fe2565b60208301905092915050565b610e76816111e6565b82525050565b6000610e8782611105565b610e918185611128565b9350610e9c836110f5565b8060005b83811015610ecd578151610eb48882610e55565b9750610ebf8361111b565b925050600181019050610ea0565b5085935050505092915050565b610ee381611235565b82525050565b6000610ef482611110565b610efe8185611139565b9350610f0e818560208601611247565b610f1781611339565b840191505092915050565b6000610f2f600e83611139565b91507f426964206e6f7420656e6f7567680000000000000000000000000000000000006000830152602082019050919050565b6000610f6f601383611139565b91507f41756374696f6e206e6f742072756e6e696e67000000000000000000000000006000830152602082019050919050565b6000610faf601383611139565b91507f56616c7565206973206e6f7420656e6f756768000000000000000000000000006000830152602082019050919050565b610feb8161122b565b82525050565b610ffa8161122b565b82525050565b60006020820190506110156000830184610e6d565b92915050565b600060208201905081810360008301526110358184610e7c565b905092915050565b60006020820190506110526000830184610eda565b92915050565b600060208201905081810360008301526110728184610ee9565b905092915050565b6000602082019050818103600083015261109381610f22565b9050919050565b600060208201905081810360008301526110b381610f62565b9050919050565b600060208201905081810360008301526110d381610fa2565b9050919050565b60006020820190506110ef6000830184610ff1565b92915050565b6000819050602082019050919050565b600081519050919050565b600081519050919050565b6000602082019050919050565b600082825260208201905092915050565b600082825260208201905092915050565b60006111558261122b565b91506111608361122b565b9250827fffffffffffffffffffffffffffffffffffffffffffffffffffffffffffffffff03821115611195576111946112ac565b5b828201905092915050565b60006111ab8261122b565b91506111b68361122b565b9250828210156111c9576111c86112ac565b5b828203905092915050565b60006111df8261120b565b9050919050565b60006111f18261120b565b9050919050565b60008190506112068261134a565b919050565b600073ffffffffffffffffffffffffffffffffffffffff82169050919050565b6000819050919050565b6000611240826111f8565b9050919050565b60005b8381101561126557808201518184015260208101905061124a565b83811115611274576000848401525b50505050565b6000600282049050600182168061129257607f821691505b602082108114156112a6576112a561130a565b5b50919050565b7f4e487b7100000000000000000000000000000000000000000000000000000000600052601160045260246000fd5b7f4e487b7100000000000000000000000000000000000000000000000000000000600052602160045260246000fd5b7f4e487b7100000000000000000000000000000000000000000000000000000000600052602260045260246000fd5b6000601f19601f8301169050919050565b6004811061135b5761135a6112db565b5b50565b611367816111d4565b811461137257600080fd5b50565b61137e8161122b565b811461138957600080fd5b5056fea2646970667358221220af559f9a896c8f65a235a99199663cbb7895f44ae4a68db92f4e788d68df1b7364736f6c63430008000033",
  "immutableReferences": {},
  "source": "// SPDX-License-Identifier: GPL-3.0\n\npragma solidity >=0.7.0 <0.9.0;\n\ncontract AuctionCreator {\n    Auction[] public auctions;\n\n    function createAuction() public {\n        Auction newAuction = new Auction(msg.sender);\n        auctions.push(newAuction);\n    }\n}\n\ncontract Auction {\n    address payable public owner;\n    uint256 public startBlock;\n    uint256 public endBlock;\n    string public ipfsHash;\n\n    enum State {\n        Started,\n        Running,\n        Ended,\n        Canceled\n    }\n\n    State public auctionState;\n\n    uint256 public highestBindingBid;\n    address payable public highestBidder;\n\n    uint256[] public bidsArray;\n    mapping(address => uint256) public bids;\n    uint256 bidIncrement;\n\n    event AuctionStateChange(State auctionState);\n\n    constructor(address EOA) {\n        owner = payable(EOA);\n        auctionState = State.Running;\n        startBlock = block.number;\n        endBlock = startBlock + 3;\n        ipfsHash = \"\";\n        bidIncrement = 1000000000000000000;\n    }\n\n    modifier onlyOwner() {\n        require(msg.sender == owner);\n        _;\n    }\n\n    modifier notOwner() {\n        require(msg.sender != owner);\n        _;\n    }\n\n    modifier afterStart() {\n        require(block.number >= startBlock);\n        _;\n    }\n\n    modifier beforeEnd() {\n        require(block.number <= endBlock);\n        _;\n    }\n\n    function min(uint256 a, uint256 b) internal pure returns (uint256) {\n        if (a <= b) {\n            return a;\n        } else {\n            return b;\n        }\n    }\n\n    function cancelAuction() public onlyOwner {\n        auctionState = State.Canceled;\n        emit AuctionStateChange(auctionState);\n    }\n\n    function finalizeAuction() public {\n        require(auctionState == State.Canceled || block.number > endBlock);\n        require(msg.sender == owner || bids[msg.sender] > 0);\n\n        address payable recipient;\n        uint256 value;\n\n        if (auctionState == State.Canceled) {\n            recipient = payable(msg.sender);\n            value = bids[msg.sender];\n        } else {\n            //ended\n            if (msg.sender == owner) {\n                recipient == owner;\n                value = highestBindingBid;\n            } else {\n                if (msg.sender == highestBidder) {\n                    //bidder owner\n                    recipient = highestBidder;\n                    value = bids[highestBidder] - highestBindingBid;\n                } else {\n                    // other bidders\n                    recipient = payable(msg.sender);\n                    value = bids[msg.sender];\n                }\n            }\n        }\n\n        bids[recipient] = 0; //reset bids of recipient so next time he calls he won't be a bidder anymore\n\n        recipient.transfer(value);\n    }\n\n    function getBids() public view returns (uint256[] memory) {\n        return bidsArray;\n    }\n\n    function placeBid() public payable notOwner afterStart beforeEnd {\n        require(auctionState == State.Running, \"Auction not running\");\n        require(msg.value >= 100, \"Value is not enough\");\n\n        uint256 currentBid = bids[msg.sender] + msg.value;\n        require(currentBid > highestBindingBid, \"Bid not enough\");\n\n        bids[msg.sender] = currentBid;\n        bidsArray.push(currentBid);\n\n        if (currentBid <= bids[highestBidder]) {\n            // your own bid\n            highestBindingBid = min(\n                currentBid + bidIncrement,\n                bids[highestBidder]\n            );\n        } else {\n            highestBindingBid = min(\n                currentBid,\n                bids[highestBidder] + bidIncrement\n            );\n            highestBidder = payable(msg.sender);\n        }\n    }\n}\n",
  "sourcePath": "/Users/arthurgallina/Desktop/Arthur/Codigos/auction-dapp/contracts/Auction.sol",
  "compiler": {
    "name": "solc",
    "version": "0.8.0+commit.c7dfd78e.Emscripten.clang"
  },
  "schemaVersion": "3.4.3",
  "updatedAt": "2021-11-13T01:54:13.752Z",
  "networkType": "ethereum",
  "devdoc": {
    "kind": "dev",
    "methods": {},
    "version": 1
  },
  "userdoc": {
    "kind": "user",
    "methods": {},
    "version": 1
  }
}